S00F000064696D2D6C65642E7372656379
S11300000C9434000C9451000C9451000C94510045
S11300100C9451000C9451000C9451000C94510018
S11300200C9451000C9451000C9451000C94510008
S11300300C9451000C9451000C9451000C945100F8
S11300400C9451000C9451000C9451000C945100E8
S11300500C9490000C9451000C9451000C94510099
S11300600C9451000C94510011241FBECFEFD8E022
S1130070DEBFCDBF11E0A0E0B1E0EEE5F9E002C0E3
S113008005900D92A233B107D9F725E0A2E3B1E0C0
S113009001C01D92A933B207E1F70E9477010C94C5
S11300A0AD040C94000010923205109233051092A6
S11300B0C50087E68093C40088E48093C10086E08D
S11300C08093C20078940895CF93DF93DC010CC031
S11300D0C3E3D5E0E88181E08E0F8883F0E08C9162
S11300E0EE5CFE4F808311968C918111F1CF80914B
S11300F0C00085FD1092C600DF91CF910895E09174
S1130100320580913305E81751F081E08E0F80931A
S11301103205F0E0EE5CFE4F80818093C6000895C6
S11301201F920F920FB60F9211242F933F934F9368
S11301305F936F937F938F939F93AF93BF93EF934B
S1130140FF930E947F00FF91EF91BF91AF919F9128
S11301508F917F916F915F914F913F912F910F906C
S11301600FBE0F901F901895809338051092340598
S1130170109235051092360510923705811102C090
S11301800E945300089520913805211102C00E9455
S113019064000895813061F040F0823019F081E309
S11301A091E0089585E091E008958BE091E0089551
S11301B080E091E00895CF92DF92EF92FF920F9347
S11301C01F93CF93DF93CDB7DEB7C659D1090FB6CE
S11301D0F894DEBF0FBECDBF1A821982FE0133969A
S11301E09EE7DF011D929A95E9F7E258FF4F1192BD
S11301F011929BE0DF011D929A95E9F7FE01E25707
S1130200FF4F1192119297E0DF011D929A95E9F741
S1130210833008F05CC07B01182F809134059091E5
S11302203505A0913605B0913705AC01BD014F5F8E
S11302305F4F6F4F7F4F4093340550933505609364
S1130240360570933705BF93AF939F938F9381E1E6
S113025091E09F938F931F928DE08F936E01B1E88D
S1130260CB0ED11CDF92CF920E94B501812F0E9448
S1130270CA009F938F9388E191E09F938F931F927D
S113028089E08F938E0102571F4F1F930F930E9493
S1130290B5014DE050E0B601CE0101960E94A501E2
S11302A049E050E0B801CE0101960E94A5014AE65A
S11302B050E0B701CE0101960E94A501CE0101963E
S11302C00E94C3000FB6F894DEBF0FBECDBFCA565E
S11302D0DF4F0FB6F894DEBF0FBECDBFDF91CF91D5
S11302E01F910F91FF90EF90DF90CF90089580E0E1
S11302F00E94B4006EE171E080E00E94DB002FEF09
S113030089E698E1215080409040E1F700C0000068
S113031065E271E081E00E94DB002FEF89E698E15D
S1130320215080409040E1F700C000006BE271E092
S113033082E00E94DB002FEF89E698E121508040A3
S11303409040E1F700C00000D5CFFB01DC010D9027
S11303500020E9F711974150504028F00190002007
S11303600D92C9F708951C920895AEE0B0E0EBEB4E
S1130370F1E00C9484040D891E898F89988D26E000
S11303802C831A83098397FF02C080E090E80197C9
S11303909E838D83AE01455E5F4F698D7A8DCE015C
S11303A001960E94E5014D815E8157FD0AC02F81AF
S11303B03885421753070CF49A01F801E20FF31F32
S11303C010822E96E4E00C94A004ABE0B0E0EBEED7
S11303D0F1E00C9476046C017B018A01FC01178224
S11303E01682838181FFCCC1CE0101963C01F601C6
S11303F09381F70193FD859193FF81917F01882378
S113040009F4BAC1853239F493FD859193FF819142
S11304107F01853229F4B60190E00E94DC03E7CF26
S1130420912C212C312CFFE1F315D8F08B3279F08B
S113043038F4803279F08332A1F4232D20611DC079
S11304408D3261F0803369F4232D216016C0832D31
S11304508260382EE32DE4603E2E2AC0F32DF8602E
S11304601DC037FC2DC020ED280F2A3040F08E32FD
S1130470B9F436FC81C1232D2064322E19C036FE16
S113048006C08AE0989E200D1124922E11C0EAE045
S11304902E9E200D1124222EF32DF0623F2E08C033
S11304A08C3621F4832D8068382E02C0883641F4BE
S11304B0F70193FD859193FF81917F018111B3CF62
S11304C0982F9F7D9554933028F40C5F1F4F9FE322
S11304D099830DC0833631F0833771F0833509F089
S11304E059C021C0F801808189830E5F1F4F882481
S11304F08394912C530113C02801F2E04F0E511C38
S1130500F801A080B18036FE03C0692D70E002C0FE
S11305106FEF7FEFC5010E94D1034C018201F32DDF
S1130520FF773F2E16C0280122E0420E511CF8012D
S1130530A080B18036FE03C0692D70E002C06FEF69
S11305407FEFC5010E94C6034C01F32DF0683F2ED6
S1130550820133FC1BC0822D90E088169906B0F40A
S1130560B60180E290E00E94DC032A94F4CFF50106
S113057037FC859137FE81915F01B60190E00E94BE
S1130580DC0321102A9421E0821A91088114910439
S113059071F7E8C0843611F0893641F5F80137FE69
S11305A007C060817181828193810C5F1F4F08C0F5
S11305B060817181072E000C880B990B0E5F1F4F11
S11305C0F32DFF763F2E97FF09C090958095709587
S11305D061957F4F8F4F9F4FF0683F2E2AE030E0A8
S11305E0A3010E941804882E861845C0853731F46B
S11305F0232D2F7EB22E2AE030E025C0932D997F43
S1130600B92E8F36C1F018F4883579F0B5C080372B
S113061019F0883721F0B0C0E92FE061BE2EB4FE96
S11306200DC0FB2DF460BF2E09C034FE0AC0292F73
S11306302660B22E06C028E030E005C020E130E09C
S113064002C020E132E0F801B7FE07C06081718189
S1130650828193810C5F1F4F06C06081718180E0AD
S113066090E00E5F1F4FA3010E941804882E861885
S1130670FB2DFF773F2E36FE0DC0232D2E7FA22E9D
S1130680891458F434FE0BC032FC09C0832D8E7ECD
S1130690A82E05C0B82CA32C03C0B82C01C0B92CBB
S11306A0A4FE0FC0FE01E80DF11D8081803321F40A
S11306B09A2D997EA92E09C0A2FE06C0B394B394C4
S11306C004C08A2D867809F0B394A3FC11C0A0FE5F
S11306D006C0B21488F4280C922C9B180EC0B214D5
S11306E060F4B60180E290E00E94DC03B394F7CF9B
S11306F0B21418F42B1802C0982C212CA4FE10C09C
S1130700B60180E390E00E94DC03A2FE17C0A1FCC6
S113071003C088E790E002C088E590E0B6010CC011
S11307208A2D867859F0A1FE02C08BE201C080E2D6
S1130730A7FC8DE2B60190E00E94DC03891438F432
S1130740B60180E390E00E94DC039A94F7CF8A9488
S1130750F301E80DF11D8081B60190E00E94DC03F5
S11307608110F5CF222009F442CEB60180E290E058
S11307700E94DC032A94F6CFF6018681978102C099
S11307808FEF9FEF2B96E2E10C949204FC0105900D
S1130790615070400110D8F7809590958E0F9F1F7F
S11307A00895FC016150704001900110D8F78095C4
S11307B090958E0F9F1F08950F931F93CF93DF93F0
S11307C0FB01238121FD03C08FEF9FEF2CC022FF8B
S11307D016C046815781248135814217530744F45A
S11307E0A081B1819D012F5F3F4F318320838C9382
S11307F0268137812F5F3F4F3783268314C08B01B7
S1130800EC01FB010084F185E02D0995892BE1F6CB
S1130810D80116968D919C911797019617969C93E3
S11308208E931697CE01DF91CF911F910F9108956A
S1130830FA01AA27283051F1203181F1E8946F930D
S11308406E7F6E5F7F4F8F4F9F4FAF4FB1E03ED0B3
S1130850B4E03CD0670F781F891F9A1FA11D680F51
S1130860791F8A1F911DA11D6A0F711D811D911D84
S1130870A11D20D009F468943F912AE0269F1124F9
S11308803019305D3193DEF6CF010895462F47705D
S1130890405D4193B3E00FD0C9F7F6CF462F4F70B8
S11308A0405D4A3318F0495D31FD4052419302D016
S11308B0A9F7EACFB4E0A6959795879577956795BC
S11308C0BA95C9F700976105710508959B01AC01BC
S11308D00A2E06945795479537952795BA95C9F7E3
S11308E0620F731F841F951FA01D08952F923F92BE
S11308F04F925F926F927F928F929F92AF92BF922C
S1130900CF92DF92EF92FF920F931F93CF93DF93D7
S1130910CDB7DEB7CA1BDB0B0FB6F894DEBF0FBE34
S1130920CDBF09942A88398848885F846E847D8481
S11309308C849B84AA84B984C884DF80EE80FD8083
S11309400C811B81AA81B981CE0FD11D0FB6F894F9
S1110950DEBF0FBECDBFED010895F894FFCFBA
S113095E494E464F004445425547004552524F5268
S113096E005B256C755D20005B25735D2000457270
S113097E726F720A00496E666F0A0044656275678B
S105098E0A0059
S9030000FC
