S0110000626C696E6B2D736F732E7372656381
S11300000C9434000C943E000C943E000C943E007E
S11300100C943E000C943E000C943E000C943E0064
S11300200C943E000C943E000C943E000C943E0054
S11300300C943E000C943E000C943E000C943E0044
S11300400C943E000C943E000C943E000C943E0034
S11300500C943E000C943E000C943E000C943E0024
S11300600C943E000C943E0011241FBECFEFD8E048
S1130070DEBFCDBF0E9485000C949B000C94000051
S11300808337F1F020E030E03CC085B1806285B96F
S11300904FEB87E299E0415080409040E1F700C087
S11300A0000085B18F7D85B94FEB87E299E041501F
S11300B080409040E1F700C000002F5F3F4F02C036
S11300C020E030E02330310504F3089595B180E257
S11300D0892785B94FEF89E698E1415080409040E7
S11300E0E1F700C0000085B18F7D85B94FEB87E251
S11300F099E0415080409040E1F700C000002F5F3C
S11301003F4F2330310514F3089584B1806284B9DC
S113011083E70E9440008FE60E94400083E70E942C
S113012040002FE784E89EE1215080409040E1F7B1
S10D013000C00000EDCFF894FFCFEB
S9030000FC
